{
  "contractName": "TokenFarm",
  "abi": [
    {
      "constant": true,
      "inputs": [],
      "name": "name",
      "outputs": [
        {
          "name": "",
          "type": "string"
        }
      ],
      "payable": false,
      "stateMutability": "view",
      "type": "function"
    },
    {
      "constant": true,
      "inputs": [
        {
          "name": "",
          "type": "address"
        }
      ],
      "name": "stakingBalance",
      "outputs": [
        {
          "name": "",
          "type": "uint256"
        }
      ],
      "payable": false,
      "stateMutability": "view",
      "type": "function"
    },
    {
      "constant": true,
      "inputs": [],
      "name": "dappToken",
      "outputs": [
        {
          "name": "",
          "type": "address"
        }
      ],
      "payable": false,
      "stateMutability": "view",
      "type": "function"
    },
    {
      "constant": true,
      "inputs": [
        {
          "name": "",
          "type": "address"
        }
      ],
      "name": "isStaking",
      "outputs": [
        {
          "name": "",
          "type": "bool"
        }
      ],
      "payable": false,
      "stateMutability": "view",
      "type": "function"
    },
    {
      "constant": true,
      "inputs": [],
      "name": "owner",
      "outputs": [
        {
          "name": "",
          "type": "address"
        }
      ],
      "payable": false,
      "stateMutability": "view",
      "type": "function"
    },
    {
      "constant": true,
      "inputs": [],
      "name": "daiToken",
      "outputs": [
        {
          "name": "",
          "type": "address"
        }
      ],
      "payable": false,
      "stateMutability": "view",
      "type": "function"
    },
    {
      "constant": true,
      "inputs": [
        {
          "name": "",
          "type": "address"
        }
      ],
      "name": "hasStaked",
      "outputs": [
        {
          "name": "",
          "type": "bool"
        }
      ],
      "payable": false,
      "stateMutability": "view",
      "type": "function"
    },
    {
      "constant": true,
      "inputs": [
        {
          "name": "",
          "type": "uint256"
        }
      ],
      "name": "stakers",
      "outputs": [
        {
          "name": "",
          "type": "address"
        }
      ],
      "payable": false,
      "stateMutability": "view",
      "type": "function"
    },
    {
      "inputs": [
        {
          "name": "_dappToken",
          "type": "address"
        },
        {
          "name": "_daiToken",
          "type": "address"
        }
      ],
      "payable": false,
      "stateMutability": "nonpayable",
      "type": "constructor"
    },
    {
      "constant": false,
      "inputs": [
        {
          "name": "_amount",
          "type": "uint256"
        }
      ],
      "name": "stakeTokens",
      "outputs": [],
      "payable": false,
      "stateMutability": "nonpayable",
      "type": "function"
    },
    {
      "constant": false,
      "inputs": [],
      "name": "issueTokens",
      "outputs": [],
      "payable": false,
      "stateMutability": "nonpayable",
      "type": "function"
    }
  ],
  "bytecode": "0x60806040526040805190810160405280601181526020017f536869656c6420546f6b656e204661726d0000000000000000000000000000008152506000908051906020019061004f929190610161565b5034801561005c57600080fd5b50604051604080610e3f8339810180604052604081101561007c57600080fd5b81019080805190602001909291908051906020019092919050505081600160006101000a81548173ffffffffffffffffffffffffffffffffffffffff021916908373ffffffffffffffffffffffffffffffffffffffff16021790555080600260006101000a81548173ffffffffffffffffffffffffffffffffffffffff021916908373ffffffffffffffffffffffffffffffffffffffff16021790555033600360006101000a81548173ffffffffffffffffffffffffffffffffffffffff021916908373ffffffffffffffffffffffffffffffffffffffff1602179055505050610206565b828054600181600116156101000203166002900490600052602060002090601f016020900481019282601f106101a257805160ff19168380011785556101d0565b828001600101855582156101d0579182015b828111156101cf5782518255916020019190600101906101b4565b5b5090506101dd91906101e1565b5090565b61020391905b808211156101ff5760008160009055506001016101e7565b5090565b90565b610c2a806102156000396000f3fe6080604052600436106100a4576000357c0100000000000000000000000000000000000000000000000000000000900463ffffffff16806306fdde03146100a957806345bc78ab146101395780635eb186f81461019e57806360ab5852146101f55780636f49712b1461020c5780637547c7a3146102755780638da5cb5b146102b0578063be22f54614610307578063c93c8f341461035e578063fd5e6dd1146103c7575b600080fd5b3480156100b557600080fd5b506100be610442565b6040518080602001828103825283818151815260200191508051906020019080838360005b838110156100fe5780820151818401526020810190506100e3565b50505050905090810190601f16801561012b5780820380516001836020036101000a031916815260200191505b509250505060405180910390f35b34801561014557600080fd5b506101886004803603602081101561015c57600080fd5b81019080803573ffffffffffffffffffffffffffffffffffffffff1690602001909291905050506104e0565b6040518082815260200191505060405180910390f35b3480156101aa57600080fd5b506101b36104f8565b604051808273ffffffffffffffffffffffffffffffffffffffff1673ffffffffffffffffffffffffffffffffffffffff16815260200191505060405180910390f35b34801561020157600080fd5b5061020a61051e565b005b34801561021857600080fd5b5061025b6004803603602081101561022f57600080fd5b81019080803573ffffffffffffffffffffffffffffffffffffffff169060200190929190505050610795565b604051808215151515815260200191505060405180910390f35b34801561028157600080fd5b506102ae6004803603602081101561029857600080fd5b81019080803590602001909291905050506107b5565b005b3480156102bc57600080fd5b506102c5610b54565b604051808273ffffffffffffffffffffffffffffffffffffffff1673ffffffffffffffffffffffffffffffffffffffff16815260200191505060405180910390f35b34801561031357600080fd5b5061031c610b7a565b604051808273ffffffffffffffffffffffffffffffffffffffff1673ffffffffffffffffffffffffffffffffffffffff16815260200191505060405180910390f35b34801561036a57600080fd5b506103ad6004803603602081101561038157600080fd5b81019080803573ffffffffffffffffffffffffffffffffffffffff169060200190929190505050610ba0565b604051808215151515815260200191505060405180910390f35b3480156103d357600080fd5b50610400600480360360208110156103ea57600080fd5b8101908080359060200190929190505050610bc0565b604051808273ffffffffffffffffffffffffffffffffffffffff1673ffffffffffffffffffffffffffffffffffffffff16815260200191505060405180910390f35b60008054600181600116156101000203166002900480601f0160208091040260200160405190810160405280929190818152602001828054600181600116156101000203166002900480156104d85780601f106104ad576101008083540402835291602001916104d8565b820191906000526020600020905b8154815290600101906020018083116104bb57829003601f168201915b505050505081565b60056020528060005260406000206000915090505481565b600160009054906101000a900473ffffffffffffffffffffffffffffffffffffffff1681565b600360009054906101000a900473ffffffffffffffffffffffffffffffffffffffff1673ffffffffffffffffffffffffffffffffffffffff163373ffffffffffffffffffffffffffffffffffffffff161415156105e3576040517f08c379a00000000000000000000000000000000000000000000000000000000081526004018080602001828103825260188152602001807f63616c6c6572206d75737420626520746865206f776e6572000000000000000081525060200191505060405180910390fd5b60008090505b60048054905081101561079257600060048281548110151561060757fe5b9060005260206000200160009054906101000a900473ffffffffffffffffffffffffffffffffffffffff1690506000600560008373ffffffffffffffffffffffffffffffffffffffff1673ffffffffffffffffffffffffffffffffffffffff168152602001908152602001600020549050600081111561078357600160009054906101000a900473ffffffffffffffffffffffffffffffffffffffff1673ffffffffffffffffffffffffffffffffffffffff1663a9059cbb83836040518363ffffffff167c0100000000000000000000000000000000000000000000000000000000028152600401808373ffffffffffffffffffffffffffffffffffffffff1673ffffffffffffffffffffffffffffffffffffffff16815260200182815260200192505050602060405180830381600087803b15801561074657600080fd5b505af115801561075a573d6000803e3d6000fd5b505050506040513d602081101561077057600080fd5b8101908080519060200190929190505050505b505080806001019150506105e9565b50565b60076020528060005260406000206000915054906101000a900460ff1681565b60008111151561082d576040517f08c379a00000000000000000000000000000000000000000000000000000000081526004018080602001828103825260128152602001807f616d6d6f756e742063616e27742062652030000000000000000000000000000081525060200191505060405180910390fd5b600260009054906101000a900473ffffffffffffffffffffffffffffffffffffffff1673ffffffffffffffffffffffffffffffffffffffff166323b872dd3330846040518463ffffffff167c0100000000000000000000000000000000000000000000000000000000028152600401808473ffffffffffffffffffffffffffffffffffffffff1673ffffffffffffffffffffffffffffffffffffffff1681526020018373ffffffffffffffffffffffffffffffffffffffff1673ffffffffffffffffffffffffffffffffffffffff1681526020018281526020019350505050602060405180830381600087803b15801561092657600080fd5b505af115801561093a573d6000803e3d6000fd5b505050506040513d602081101561095057600080fd5b81019080805190602001909291905050505080600560003373ffffffffffffffffffffffffffffffffffffffff1673ffffffffffffffffffffffffffffffffffffffff1681526020019081526020016000205401600560003373ffffffffffffffffffffffffffffffffffffffff1673ffffffffffffffffffffffffffffffffffffffff16815260200190815260200160002081905550600660003373ffffffffffffffffffffffffffffffffffffffff1673ffffffffffffffffffffffffffffffffffffffff16815260200190815260200160002060009054906101000a900460ff161515610aa15760043390806001815401808255809150509060018203906000526020600020016000909192909190916101000a81548173ffffffffffffffffffffffffffffffffffffffff021916908373ffffffffffffffffffffffffffffffffffffffff160217905550505b6001600660003373ffffffffffffffffffffffffffffffffffffffff1673ffffffffffffffffffffffffffffffffffffffff16815260200190815260200160002060006101000a81548160ff0219169083151502179055506001600760003373ffffffffffffffffffffffffffffffffffffffff1673ffffffffffffffffffffffffffffffffffffffff16815260200190815260200160002060006101000a81548160ff02191690831515021790555050565b600360009054906101000a900473ffffffffffffffffffffffffffffffffffffffff1681565b600260009054906101000a900473ffffffffffffffffffffffffffffffffffffffff1681565b60066020528060005260406000206000915054906101000a900460ff1681565b600481815481101515610bcf57fe5b906000526020600020016000915054906101000a900473ffffffffffffffffffffffffffffffffffffffff168156fea165627a7a72305820c82995b9acb46175ec38b8b06db63517b73be095c575d40d1370c716b08611ca0029",
  "source": "pragma solidity ^0.5.0;\n\nimport \"./DappToken.sol\";\nimport \"./DaiToken.sol\";\n\n/**\n\nDeployment process:\n\n- Step 1: Deploy Dai\n- Step 2: Deploy Dapp\n- Step 3: Deploy TokenFarm\n\n */\ncontract TokenFarm {\n\n    //All code goes here\n\n    string public name = \"Shield Token Farm\";\n\n    DappToken public dappToken;\n\n    DaiToken public daiToken;\n\n    address public owner;\n\n    address [] public stakers;\n\n    mapping(address => uint) public stakingBalance;\n\n    mapping(address => bool) public hasStaked;\n\n    mapping(address => bool) public isStaking;\n\n    /**\n        El contrato está creado con dappToken y daiToken (el contrato recibirá _dappToken y generará _daiToken)\n    */\n    constructor(DappToken _dappToken, DaiToken _daiToken) public {\n\n        dappToken = _dappToken;\n\n        daiToken = _daiToken;\n\n        owner = msg.sender;\n    }\n\n    // 1. Stakes Tokens (Deposit)\n\n    function stakeTokens(uint _amount) public {\n\n        require(_amount > 0, \"ammount can't be 0\"); //Añadimos el requisito de que pueda stakear 0 tokens y entrar en el array de stakers\n\n        // Transfer Mock Dai tokens to this contract for Staking\n        daiToken.transferFrom(msg.sender, address(this), _amount); \n            //Function in the DaiToken.app | msg.sender - Variable global | address(this) - para apuntar a la dirección de este contrato | Amount - cantidad\n\n        //Update Stakin Balance\n        stakingBalance[msg.sender] = stakingBalance[msg.sender] + _amount;\n            //Asignamos el balance del staking con el _amount. Tenemos que sumarlo por si el usuario ya tiene tokens en stake\n\n        //Add users to stakers array *only if they haven't staked already*\n\n        if(!hasStaked[msg.sender])\n            stakers.push(msg.sender);\n            //Si el (msg.sender = address en ese momento conectada) no tiene nada en stake, lo añadimos al array. Sino nada (ya se añadió)\n\n        hasStaked[msg.sender] = true;\n            //Le añadimos true a hasStaked con esta address (msg.sender)\n\n        isStaking[msg.sender] = true;\n            //Le añadimos true a isStaking con esta address (msg.sender)\n    }\n\n    // 2. Issuing Tokens (Rewards)\n\n    function issueTokens() public { \n        \n        require(msg.sender == owner, \"caller must be the owner\"); //Solo el owner podrá llamar a esta funcion\n\n        //Recorremos todas las address que hay haciendo staking (stakers)\n        for(uint ii = 0; ii < stakers.length; ii++) {\n\n            address recipient = stakers[ii]; //Cogemos el staker\n\n            uint balance = stakingBalance[recipient]; //Cogemos su balance de daiToken \n\n            if(balance > 0)\n                dappToken.transfer(recipient, balance); //Le asignamos la misma cantidad de dappToken que el balance de daiToken\n\n            \n        } \n    }\n\n    // 3. Unstaking Tokens (Whitdraw)\n} ",
  "sourcePath": "/Users/edusamblas/Blockchain/Defi Tutorial/src/contracts/TokenFarm.sol",
  "compiler": {
    "name": "solc",
    "version": "0.5.0+commit.1d4f565a.Emscripten.clang"
  },
  "schemaVersion": "3.0.1",
  "updatedAt": "2021-06-20T16:17:40.906Z",
  "devdoc": {
    "methods": {}
  },
  "userdoc": {
    "methods": {
      "constructor": "El contrato está creado con dappToken y daiToken (el contrato recibirá _dappToken y generará _daiToken)"
    },
    "notice": "Deployment process: - Step 1: Deploy Dai - Step 2: Deploy Dapp - Step 3: Deploy TokenFarm"
  }
}